:020000040000fa
:080000000002040000000000f2
:020000040000fa
:04000800a80200004a
:020000040000fa
:04000c00a802000046
:020000040000fa
:04001000a802000042
:020000040000fa
:04001400a80200003e
:020000040000fa
:04001800a80200003a
:020000040000fa
:04001c00a802000036
:020000040000fa
:04002000a802000032
:020000040000fa
:04002400a80200002e
:020000040000fa
:04002800a67b0000b3
:020000040000fa
:04002c00a802000026
:020000040000fa
:04003000a802000022
:020000040000fa
:040034006c780000e4
:020000040000fa
:04003800a80200001a
:020000040000fa
:04003c00a802000016
:020000040000fa
:04004000a802000012
:020000040000fa
:04004400a80200000e
:020000040000fa
:04004800267d000011
:020000040000fa
:04004c00a802000006
:020000040000fa
:04005000a802000002
:020000040000fa
:040054002e79000001
:020000040000fa
:04005800a8020000fa
:020000040000fa
:04005c00ee7a000038
:020000040000fa
:04006000a8020000f2
:020000040000fa
:04006400a8020000ee
:020000040000fa
:04006800a8020000ea
:020000040000fa
:04006c00a8020000e6
:020000040000fa
:04007000a8020000e2
:020000040000fa
:04007400a8020000de
:020000040000fa
:04007800907c000078
:020000040000fa
:04007c00a8020000d6
:020000040000fa
:04008000a8020000d2
:020000040000fa
:04008400a8020000ce
:020000040000fa
:04008800a8020000ca
:020000040000fa
:04008c00a8020000c6
:020000040000fa
:04009000a8020000c2
:020000040000fa
:04009400a8020000be
:020000040000fa
:04009800a8020000ba
:020000040000fa
:04009c00a8020000b6
:020000040000fa
:0400a000a8020000b2
:020000040000fa
:0400a400a8020000ae
:020000040000fa
:0400a800a8020000aa
:020000040000fa
:0400ac00a8020000a6
:020000040000fa
:0400b000a8020000a2
:020000040000fa
:0400b400a80200009e
:020000040000fa
:0400b800a80200009a
:020000040000fa
:0400bc00a802000096
:020000040000fa
:0400c000a802000092
:020000040000fa
:0400c400a80200008e
:020000040000fa
:0400c800a80200008a
:020000040000fa
:0400cc00a802000086
:020000040000fa
:0400d000a802000082
:020000040000fa
:0400d400a80200007e
:020000040000fa
:0400d800a80200007a
:020000040000fa
:0400dc00a802000076
:020000040000fa
:0400e000a802000072
:020000040000fa
:0400e400a80200006e
:020000040000fa
:0400e800a80200006a
:020000040000fa
:0400ec00a802000066
:020000040000fa
:0400f000a802000062
:020000040000fa
:0400f400a80200005e
:020000040000fa
:0400f800a80200005a
:020000040000fa
:0400fc00a802000056
:020000040000fa
:04010000a802000051
:020000040000fa
:04010400a80200004d
:020000040000fa
:04010800a802000049
:020000040000fa
:04010c00a802000045
:020000040000fa
:04011000a802000041
:020000040000fa
:04011400a80200003d
:020000040000fa
:04011800a802000039
:020000040000fa
:04011c00a802000035
:020000040000fa
:04012000a802000031
:020000040000fa
:04012400a80200002d
:020000040000fa
:04012800a802000029
:020000040000fa
:04012c00a802000025
:020000040000fa
:04013000a802000021
:020000040000fa
:04013400a80200001d
:020000040000fa
:04013800a802000019
:020000040000fa
:04013c00a802000015
:020000040000fa
:04014000a802000011
:020000040000fa
:04014400a80200000d
:020000040000fa
:04014800a802000009
:020000040000fa
:04014c00a802000005
:020000040000fa
:04015000a802000001
:020000040000fa
:04015400a8020000fd
:020000040000fa
:04015800a8020000f9
:020000040000fa
:04015c00a8020000f5
:020000040000fa
:04016000a8020000f1
:020000040000fa
:04016400a8020000ed
:020000040000fa
:04020800a802000048
:020000040000fa
:04020c00a802000044
:020000040000fa
:04021000a802000040
:020000040000fa
:04021400a80200003c
:020000040000fa
:04021800a802000038
:020000040000fa
:04021c00a802000034
:020000040000fa
:04022000a802000030
:020000040000fa
:04022400a80200002c
:020000040000fa
:04022800a802000028
:020000040000fa
:04022c00a802000024
:020000040000fa
:04023000a802000020
:020000040000fa
:04023400a80200001c
:020000040000fa
:04023800a802000018
:020000040000fa
:04023c00a802000014
:020000040000fa
:04024000a802000010
:020000040000fa
:04024400a80200000c
:020000040000fa
:04024800a802000008
:020000040000fa
:04024c00a802000004
:020000040000fa
:04025000a802000000
:020000040000fa
:04025400a8020000fc
:020000040000fa
:04025800a8020000f8
:020000040000fa
:04025c00a8020000f4
:020000040000fa
:04026000a8020000f0
:020000040000fa
:04026400a8020000ec
:020000040000fa
:04026800a8020000e8
:020000040000fa
:04026c00a8020000e4
:020000040000fa
:04027000a8020000e0
:020000040000fa
:04027400a8020000dc
:020000040000fa
:04027800a8020000d8
:020000040000fa
:04027c00a8020000d4
:020000040000fa
:04028000a8020000d0
:020000040000fa
:04028400a8020000cc
:020000040000fa
:04028800a8020000c8
:020000040000fa
:04028c00a8020000c4
:020000040000fa
:04029000a8020000c0
:020000040000fa
:04029400a8020000bc
:020000040000fa
:04029800a8020000b8
:020000040000fa
:04029c00a8020000b4
:020000040000fa
:0402a000a8020000b0
:020000040000fa
:0402a400a8020000ac
:020000040000fa
:0402a800a8020000a8
:020000040000fa
:0402ac00a8020000a4
:020000040000fa
:0402b000a8020000a0
:020000040000fa
:0402b400a80200009c
:020000040000fa
:0402b800a802000098
:020000040000fa
:0402bc00a802000094
:020000040000fa
:0402c000a802000090
:020000040000fa
:0402c400a80200008c
:020000040000fa
:0402c800a802000088
:020000040000fa
:0402cc00a802000084
:020000040000fa
:0402d000a802000080
:020000040000fa
:0402d400a80200007c
:020000040000fa
:0402d800a802000078
:020000040000fa
:0402dc00a802000074
:020000040000fa
:0402e000a802000070
:020000040000fa
:0402e400a80200006c
:020000040000fa
:0402e800a802000068
:020000040000fa
:0402ec00a802000064
:020000040000fa
:0402f000a802000060
:020000040000fa
:0402f400a80200005c
:020000040000fa
:0402f800a802000058
:020000040000fa
:0402fc00a802000054
:020000040000fa
:04030000a80200004f
:020000040000fa
:04030400a80200004b
:020000040000fa
:04030800a802000047
:020000040000fa
:04030c00a802000043
:020000040000fa
:04031000a80200003f
:020000040000fa
:04031400a80200003b
:020000040000fa
:04031800a802000037
:020000040000fa
:04031c00a802000033
:020000040000fa
:04032000a80200002f
:020000040000fa
:04032400a80200002b
:020000040000fa
:04032800a802000027
:020000040000fa
:04032c00a802000023
:020000040000fa
:04033000a80200001f
:020000040000fa
:04033400a80200001b
:020000040000fa
:04033800a802000017
:020000040000fa
:04033c00a802000013
:020000040000fa
:04034000a80200000f
:020000040000fa
:04034400a80200000b
:020000040000fa
:04034800a802000007
:020000040000fa
:04034c00a802000003
:020000040000fa
:04035000a8020000ff
:020000040000fa
:04035400a8020000fb
:020000040000fa
:04035800a8020000f7
:020000040000fa
:04035c00a8020000f3
:020000040000fa
:04036000a8020000ef
:020000040000fa
:04036400a8020000eb
:020000040000fa
:100400002f8420000e7f24000e01880000000000d1
:10041000000020000000e000020032000001200087
:10042000200288000c000700e029280001002000bd
:1004300011000700000020000000e0000200320070
:1004400000000200000000006282020000000000c4
:100450000040da000000fe004440a90000532700dd
:100460000000e0000300320000002000a00188002e
:100470004440a80000000600910188008000780038
:100480000000eb0015003700e280400032a0b4000d
:100490009101ba00e280400032a0b4009102ba009b
:1004a000e280400032a0b4000002eb00472bde00e7
:1004b000f507b200602ce10004003a000059eb009f
:1004c0008301e900fdff3e00040037006128e100e0
:1004d000010032000082eb000b00070011c3ba00dc
:1004e0001101ba000604e00003003a000200e00037
:1004f000e5ff3a0000000600f607b200960188000a
:1005000082007800f5ff37003159ba008301e90015
:100510000c0032002159ba008301e90008003200c2
:100520000400e00003003a00e280400032a0b40082
:10053000f5ff370011d9ba008301e900faff3a004c
:100540008100e800e180400032a0b4000000060015
:100550000040da000000fe00800078000100780012
:100560003041780003c2b300834f5100faff3200dc
:10057000e94f5100f8ff3200edc14100834f5100b7
:1005800003003a008000780013c0b3000500370074
:100590008041eb00b4c2b300844f510001003a0027
:1005a000800078000000eb00020037006a02b9000a
:1005b000040041003101fb000203b100e90f5100ca
:1005c000faff36000304e000010032000000ea00f8
:0405d0000000060021
:020000040000fa
:1005d400ff470000ff470000ff470000ff470000ff
:1005e400ff470000004800000048000000480000e9
:1005f40000480000004800000148000001480000d5
:1006040001480000014800000248000002480000c0
:1006140002480000024800000248000003480000ad
:10062400034800000348000003480000034800009a
:100634000448000004480000044800000448000086
:100644000548000005480000054800000548000072
:10065400054800000648000006480000064800005f
:10066400064800000648000007480000074800004c
:100674000748000007480000084800000848000038
:100684000848000008480000084800000948000025
:100694000948000009480000094800000948000012
:1006a4000a4800000a4800000a4800000a480000fe
:1006b4000b4800000b4800000b4800000b480000ea
:1006c4000b4800000c4800000c4800000c480000d7
:1006d4000c4800000c4800000d4800000d480000c4
:1006e4000d4800000d4800000e4800000e480000b0
:1006f4000e4800000e4800000e4800000f4800009d
:100704000f4800000f4800000f4800000f48000089
:100714001048000010480000104800001048000075
:100724001148000011480000114800001148000061
:10073400114800001248000012480000124800004e
:10074400124800001248000013480000134800003b
:100754001348000013480000144800001448000027
:100764001448000014480000144800001548000014
:100774001548000015480000154800001548000001
:1007840016480000164800001648000016480000ed
:1007940017480000174800001748000017480000d9
:1007a40017480000184800001848000018480000c6
:1007b40018480000184800001948000019480000b3
:1007c40019480000194800001a4800001a4800009f
:1007d4001a4800001a4800001a4800001b4800008c
:1007e4001b4800001b4800001b4800001b48000079
:1007f4001c4800001c4800001c4800001c48000065
:100804001d4800001d4800001d4800001d48000050
:100814001d4800001e4800001e4800001e4800003d
:100824001e4800001e4800001f4800001f4800002a
:100834001f4800001f480000204800002048000016
:100844002048000020480000204800002148000003
:1008540021480000214800002148000021480000f0
:1008640022480000224800002248000022480000dc
:1008740023480000234800002348000023480000c8
:1008840023480000244800002448000024480000b5
:1008940024480000244800002548000025480000a2
:1008a400254800002548000026480000264800008e
:1008b400264800002648000026480000274800007b
:1008c4002748000027480000274800002748000068
:1008d4002848000028480000284800002848000054
:1008e4002948000029480000294800002948000040
:1008f400294800002a4800002a4800002a4800002d
:100904002a4800002a4800002b4800002b48000019
:100914002b4800002b4800002c4800002c48000005
:100924002c4800002c4800002c4800002d480000f2
:100934002d4800002d4800002d4800002d480000df
:100944002e4800002e4800002e4800002e480000cb
:100954002f4800002f4800002f4800002f480000b7
:100964002f480000304800003048000030480000a4
:100974003048000030480000314800003148000091
:10098400314800003148000032480000324800007d
:10099400324800003248000032480000334800006a
:1009a4003348000033480000334800003348000057
:1009b4003448000034480000344800003448000043
:1009c400354800003548000035480000354800002f
:1009d400354800003648000036480000364800001c
:1009e4003648000036480000374800003748000009
:1009f40037480000374800003848000038480000f5
:100a040038480000384800003848000039480000e1
:100a140039480000394800003948000039480000ce
:100a24003a4800003a4800003a4800003a480000ba
:100a34003b4800003b4800003b4800003b480000a6
:100a44003b4800003c4800003c4800003c48000093
:100a54003c4800003c4800003d4800003d48000080
:100a64003d4800003d4800003e4800003e4800006c
:100a74003e4800003e4800003e4800003f48000059
:100a84003f4800003f4800003f4800003f48000046
:100a94004048000040480000404800004048000032
:100aa400414800004148000041480000414800001e
:100ab400414800004248000042480000424800000b
:100ac40042480000424800004348000043480000f8
:100ad40043480000434800004448000044480000e4
:100ae40044480000444800004448000045480000d1
:100af40045480000454800004548000045480000be
:100b040046480000464800004648000046480000a9
:100b14004748000047480000474800004748000095
:100b24004748000048480000484800004848000082
:100b3400484800004848000049480000494800006f
:100b440049480000494800004a4800004a4800005b
:100b54004a4800004a4800004a4800004b48000048
:100b64004b4800004b4800004b4800004b48000035
:100b74004c4800004c4800004c4800004c48000021
:100b84004d4800004d4800004d4800004d4800000d
:100b94004d4800004e4800004e4800004e480000fa
:100ba4004e4800004e4800004f4800004f480000e7
:100bb4004f4800004f4800005048000050480000d3
:100bc40050480000504800005048000051480000c0
:100bd40051480000514800005148000051480000ad
:100be4005248000052480000524800005248000099
:100bf4005348000053480000534800005348000085
:100c04005348000054480000544800005448000071
:100c1400544800005448000055480000554800005e
:100c2400554800005548000056480000564800004a
:100c34005648000056480000564800005748000037
:100c44005748000057480000574800005748000024
:100c54005848000058480000584800005848000010
:100c640059480000594800005948000059480000fc
:100c7400594800005a4800005a4800005a480000e9
:100c84005a4800005a4800005b4800005b480000d6
:100c94005b4800005b4800005c4800005c480000c2
:100ca4005c4800005c4800005c4800005d480000af
:100cb4005d4800005d4800005d4800005d4800009c
:100cc4005e4800005e4800005e4800005e48000088
:100cd4005f4800005f4800005f4800005f48000074
:100ce4005f48000060480000604800006048000061
:100cf400604800006048000061480000614800004e
:100d04006148000061480000624800006248000039
:100d14006248000062480000624800006348000026
:100d24006348000063480000634800006348000013
:100d340064480000644800006448000064480000ff
:100d440065480000654800006548000065480000eb
:100d540065480000664800006648000066480000d8
:100d640066480000664800006748000067480000c5
:100d740067480000674800006748000068480000b2
:100d8400684800006848000068480000694800009e
:100d9400694800006948000069480000694800008b
:100da4006a4800006a4800006a4800006a48000077
:100db4006a4800006b4800006b4800006b48000064
:100dc4006b4800006c4800006c4800006c48000050
:100dd4006c4800006c4800006d4800006d4800003d
:100de4006d4800006d4800006d4800006e4800002a
:100df4006e4800006e4800006e4800006f48000016
:100e04006f4800006f4800006f4800006f48000002
:100e140070480000704800007048000070480000ee
:100e240070480000714800007148000071480000db
:100e340071480000724800007248000072480000c7
:100e440072480000724800007348000073480000b4
:100e540073480000734800007348000074480000a1
:100e6400744800007448000074480000754800008d
:100e7400754800007548000075480000754800007a
:100e84007648000076480000764800007648000066
:100e94007648000077480000774800007748000053
:100ea400774800007848000078480000784800003f
:100eb400784800007848000079480000794800002c
:100ec4007948000079480000794800007a48000019
:100ed4007a4800007a4800007a4800007b48000005
:100ee4007b4800007b4800007b4800007b480000f2
:100ef4007c4800007c4800007c4800007c480000de
:100f04007c4800007d4800007d4800007d480000ca
:100f14007d4800007e4800007e4800007e480000b6
:100f24007e4800007e4800007f4800007f480000a3
:100f34007f4800007f4800007f4800008048000090
:100f4400804800008048000080480000814800007c
:100f54008148000081480000814800008148000069
:100f64008248000082480000824800008248000055
:100f74008248000083480000834800008348000042
:100f8400834800008448000084480000844800002e
:100f9400844800008448000085480000854800001b
:100fa4008548000085480000854800008648000008
:100fb40086480000864800008648000087480000f4
:100fc40087480000874800008748000087480000e1
:100fd40088480000884800008848000088480000cd
:100fe40088480000894800008948000089480000ba
:100ff400894800008a4800008a4800008a480000a6
:101004008a4800008a4800008b4800008b48000092
:101014008b4800008b4800008b4800008c4800007f
:101024008c4800008c4800008c4800008d4800006b
:101034008d4800008d4800008d4800008d48000058
:101044008e4800008e4800008e4800008e48000044
:101054008e4800008f4800008f4800008f48000031
:101064008f4800009048000090480000904800001d
:10107400904800009048000091480000914800000a
:1010840091480000914800009148000092480000f7
:1010940092480000924800009248000093480000e3
:1010a40093480000934800009348000093480000d0
:1010b40094480000944800009448000094480000bc
:1010c40094480000954800009548000095480000a9
:1010d4009548000095480000964800009648000096
:1010e4009648000096480000974800009748000082
:1010f400974800009748000097480000984800006f
:10110400984800009848000098480000984800005b
:101114009948000099480000994800009948000047
:101124009a4800009a4800009a4800009a48000033
:101134009a4800009b4800009b4800009b48000020
:101144009b4800009b4800009c4800009c4800000d
:101154009c4800009c4800009d4800009d480000f9
:101164009d4800009d4800009d4800009e480000e6
:101174009e4800009e4800009e4800009e480000d3
:101184009f4800009f4800009f4800009f480000bf
:10119400a0480000a0480000a0480000a0480000ab
:1011a400a0480000a1480000a1480000a148000098
:1011b400a1480000a1480000a2480000a248000085
:1011c400a2480000a2480000a3480000a348000071
:1011d400a3480000a3480000a3480000a44800005e
:1011e400a4480000a4480000a4480000a44800004b
:1011f400a5480000a5480000a5480000a548000037
:10120400a6480000a6480000a6480000a648000022
:10121400a6480000a7480000a7480000a74800000f
:10122400a7480000a7480000a8480000a8480000fc
:10123400a8480000a8480000a9480000a9480000e8
:10124400a9480000a9480000a9480000aa480000d5
:10125400aa480000aa480000aa480000aa480000c2
:10126400ab480000ab480000ab480000ab480000ae
:10127400ac480000ac480000ac480000ac4800009a
:10128400ac480000ad480000ad480000ad48000087
:10129400ad480000ad480000ae480000ae48000074
:1012a400ae480000ae480000ae480000af48000061
:1012b400af480000af480000af480000b04800004d
:1012c400b0480000b0480000b0480000b04800003a
:1012d400b1480000b1480000b1480000b148000026
:1012e400b1480000b2480000b2480000b248000013
:1012f400b2480000b3480000b3480000b3480000ff
:10130400b3480000b3480000b4480000b4480000eb
:10131400b4480000b4480000b4480000b5480000d8
:10132400b5480000b5480000b5480000b6480000c4
:10133400b6480000b6480000b6480000b6480000b1
:10134400b7480000b7480000b7480000b74800009d
:10135400b7480000b8480000b8480000b84800008a
:10136400b8480000b9480000b9480000b948000076
:10137400b9480000b9480000ba480000ba48000063
:10138400ba480000ba480000ba480000bb48000050
:10139400bb480000bb480000bb480000bc4800003c
:1013a400bc480000bc480000bc480000bc48000029
:1013b400bd480000bd480000bd480000bd48000015
:1013c400bd480000be480000be480000be48000002
:1013d400be480000bf480000bf480000bf480000ee
:1013e400bf480000bf480000c0480000c0480000db
:1013f400c0480000c0480000c0480000c1480000c8
:10140400c1480000c1480000c1480000c2480000b3
:10141400c2480000c2480000c2480000c2480000a0
:10142400c3480000c3480000c3480000c34800008c
:10143400c3480000c4480000c4480000c448000079
:10144400c4480000c4480000c5480000c548000066
:10145400c5480000c5480000c6480000c648000052
:10146400c6480000c6480000c6480000c74800003f
:10147400c7480000c7480000c7480000c74800002c
:10148400c8480000c8480000c8480000c848000018
:10149400c9480000c9480000c9480000c948000004
:1014a400c9480000ca480000ca480000ca480000f1
:1014b400ca480000ca480000cb480000cb480000de
:1014c400cb480000cb480000cc480000cc480000ca
:1014d400cc480000cc480000cc480000cd480000b7
:1014e400cd480000cd480000cd480000cd480000a4
:1014f400ce480000ce480000ce480000ce48000090
:10150400cf480000cf480000cf480000cf4800007b
:10151400cf480000d0480000d0480000d048000068
:10152400d0480000d0480000d1480000d148000055
:10153400d1480000d1480000d1480000d248000042
:10154400d2480000d2480000d2480000d34800002e
:10155400d3480000d3480000d3480000d34800001b
:10156400d4480000d4480000d4480000d448000007
:10157400d4480000d5480000d5480000d5480000f4
:10158400d5480000d6480000d6480000d6480000e0
:10159400d6480000d6480000d7480000d7480000cd
:1015a400d7480000d7480000d7480000d8480000ba
:1015b400d8480000d8480000d8480000d9480000a6
:1015c400d9480000d9480000d9480000d948000093
:1015d400da480000da480000da480000da4800007f
:1015e400da480000db480000db480000db4800006c
:1015f400db480000dc480000dc480000dc48000058
:10160400dc480000dc480000dd480000dd48000044
:10161400dd480000dd480000dd480000de48000031
:10162400de480000de480000de480000df4800001d
:10163400df480000df480000df480000df4800000a
:10164400e0480000e0480000e0480000e0480000f6
:10165400e0480000e1480000e1480000e1480000e3
:10166400e1480000e1480000e2480000e2480000d0
:10167400e2480000e2480000e3480000e3480000bc
:10168400e3480000e3480000e3480000e4480000a9
:10169400e4480000e4480000e4480000e448000096
:1016a400e5480000e5480000e5480000e548000082
:1016b400e6480000e6480000e6480000e64800006e
:1016c400e6480000e7480000e7480000e74800005b
:1016d400e7480000e7480000e8480000e848000048
:1016e400e8480000e8480000e9480000e948000034
:1016f400e9480000e9480000e9480000ea48000021
:10170400ea480000ea480000ea480000ea4800000d
:10171400eb480000eb480000eb480000eb480000f9
:10172400eb480000ec480000ec480000ec480000e6
:10173400ec480000ed480000ed480000ed480000d2
:10174400ed480000ed480000ee480000ee480000bf
:10175400ee480000ee480000ee480000ef480000ac
:10176400ef480000ef480000ef480000f048000098
:10177400f0480000f0480000f0480000f048000085
:10178400f1480000f1480000f1480000f148000071
:10179400f1480000f2480000f2480000f24800005e
:1017a400f2480000f3480000f3480000f34800004a
:1017b400f3480000f3480000f4480000f448000037
:1017c400f4480000f4480000f4480000f548000024
:1017d400f5480000f5480000f5480000f648000010
:1017e400f6480000f6480000f6480000f6480000fd
:1017f400f7480000f7480000f7480000f7480000e9
:10180400f7480000f8480000f8480000f8480000d5
:10181400f8480000f8480000f9480000f9480000c2
:10182400f9480000f9480000fa480000fa480000ae
:10183400fa480000fa480000fa480000fb4800009b
:10184400fb480000fb480000fb480000fb48000088
:10185400fc480000fc480000fc480000fc48000074
:10186400fd480000fd480000fd480000fd48000060
:10187400fd480000fe480000fe480000fe4800004d
:10188400fe480000fe480000ff480000ff4800003a
:10189400ff480000ff480000ff4800000049000026
:1018a400004900000049000000490000014900000f
:1018b40001490000014900000149000001490000fc
:1018c40002490000024900000249000002490000e8
:1018d40002490000034900000349000003490000d5
:1018e40003490000044900000449000004490000c1
:1018f40004490000044900000549000005490000ae
:10190400054900000549000005490000064900009a
:101914000649000006490000064900000749000086
:101924000749000007490000074900000749000073
:10193400084900000849000008490000084900005f
:10194400084900000949000009490000094900004c
:1019540009490000094900000a4900000a49000039
:101964000a4900000a4900000b4900000b49000025
:101974000b4900000b4900000b4900000c49000012
:101984000c4900000c4900000c4900000c490000ff
:101994000d4900000d4900000d4900000d490000eb
:1019a4000e4900000e4900000e4900000e490000d7
:1019b4000e4900000f4900000f4900000f490000c4
:1019c4000f4900000f4900001049000010490000b1
:1019d400104900001049000011490000114900009d
:1019e400114900001149000011490000124900008a
:1019f4001249000012490000124900001249000077
:101a04001349000013490000134900001349000062
:101a1400134900001449000014490000144900004f
:101a2400144900001549000015490000154900003b
:101a34001549000015490000164900001649000028
:101a44001649000016490000164900001749000015
:101a54001749000017490000174900001849000001
:101a640018490000184900001849000018490000ee
:101a740019490000194900001949000019490000da
:101a8400194900001a4900001a4900001a490000c7
:101a94001a4900001a4900001b4900001b490000b4
:101aa4001b4900001b4900001c4900001c490000a0
:101ab4001c4900001c4900001c4900001d4900008d
:101ac4001d4900001d4900001d4900001d4900007a
:101ad4001e4900001e4900001e4900001e49000066
:101ae4001f4900001f4900001f4900001f49000052
:101af4001f4900002049000020490000204900003f
:101b0400204900002049000021490000214900002b
:101b14002149000021490000214900002249000018
:101b24002249000022490000224900002349000004
:101b340023490000234900002349000023490000f1
:101b440024490000244900002449000024490000dd
:101b540024490000254900002549000025490000ca
:101b640025490000264900002649000026490000b6
:101b740026490000264900002749000027490000a3
:101b84002749000027490000274900002849000090
:101b9400284900002849000028490000284900007d
:101ba4002949000029490000294900002949000069
:101bb4002a4900002a4900002a4900002a49000055
:101bc4002a4900002b4900002b4900002b49000042
:101bd4002b4900002b4900002c4900002c4900002f
:101be4002c4900002c4900002d4900002d4900001b
:101bf4002d4900002d4900002d4900002e49000008
:101c04002e4900002e4900002e4900002e490000f4
:101c14002f4900002f4900002f4900002f490000e0
:101c24002f490000304900003049000030490000cd
:101c340030490000314900003149000031490000b9
:101c440031490000314900003249000032490000a6
:101c54003249000032490000324900003349000093
:101c6400334900003349000033490000344900007f
:101c7400344900003449000034490000344900006c
:101c84003549000035490000354900003549000058
:101c94003549000036490000364900003649000045
:101ca4003649000036490000374900003749000032
:101cb400374900003749000038490000384900001e
:101cc400384900003849000038490000394900000b
:101cd40039490000394900003949000039490000f8
:101ce4003a4900003a4900003a4900003a490000e4
:101cf4003b4900003b4900003b4900003b490000d0
:101d04003b4900003c4900003c4900003c490000bc
:101d14003c4900003c4900003d4900003d490000a9
:101d24003d4900003d4900003d4900003e49000096
:101d34003e4900003e4900003e4900003f49000082
:101d44003f4900003f4900003f4900003f4900006f
:101d5400404900004049000040490000404900005b
:101d64004049000041490000414900004149000048
:101d74004149000041490000424900004249000035
:101d84004249000042490000434900004349000021
:101d9400434900004349000043490000444900000e
:101da40044490000444900004449000044490000fb
:101db40045490000454900004549000045490000e7
:101dc40046490000464900004649000046490000d3
:101dd40046490000474900004749000047490000c0
:101de40047490000474900004849000048490000ad
:101df400484900004849000048490000494900009a
:101e04004949000049490000494900004a49000085
:101e14004a4900004a4900004a4900004a49000072
:101e24004b4900004b4900004b4900004b4900005e
:101e34004b4900004c4900004c4900004c4900004b
:101e44004c4900004c4900004d4900004d49000038
:101e54004d4900004d4900004e4900004e49000024
:101e64004e4900004e4900004e4900004f49000011
:101e74004f4900004f4900004f4900004f490000fe
:101e840050490000504900005049000050490000ea
:101e940051490000514900005149000051490000d6
:101ea40051490000524900005249000052490000c3
:101eb40052490000524900005349000053490000b0
:101ec400534900005349000053490000544900009d
:101ed4005449000054490000544900005549000089
:101ee4005549000055490000554900005549000076
:101ef4005649000056490000564900005649000062
:101f0400564900005749000057490000574900004e
:101f1400574900005749000058490000584900003b
:101f24005849000058490000594900005949000027
:101f34005949000059490000594900005a49000014
:101f44005a4900005a4900005a4900005a49000001
:101f54005b4900005b4900005b4900005b490000ed
:101f64005c4900005c4900005c4900005c490000d9
:101f74005c4900005d4900005d4900005d490000c6
:101f84005d4900005d4900005e4900005e490000b3
:101f94005e4900005e4900005e4900005f490000a0
:101fa4005f4900005f4900005f490000604900008c
:101fb4006049000060490000604900006049000079
:101fc4006149000061490000614900006149000065
:101fd4006149000062490000624900006249000052
:101fe400624900006249000063490000634900003f
:101ff400634900006349000064490000644900002b
:102004006449000064490000644900006549000017
:102014006549000065490000654900006549000004
:1020240066490000664900006649000066490000f0
:1020340066490000674900006749000067490000dd
:1020440067490000684900006849000068490000c9
:1020540068490000684900006949000069490000b6
:102064006949000069490000694900006a490000a3
:102074006a4900006a4900006a4900006a49000090
:102084006b4900006b4900006b4900006b4900007c
:102094006c4900006c4900006c4900006c49000068
:1020a4006c4900006d4900006d4900006d49000055
:1020b4006d4900006d4900006e4900006e49000042
:1020c4006e4900006e4900006f4900006f4900002e
:1020d4006f4900006f4900006f490000704900001b
:1020e4007049000070490000704900007049000008
:1020f40071490000714900007149000071490000f4
:1021040071490000724900007249000072490000e0
:1021140072490000734900007349000073490000cc
:1021240073490000734900007449000074490000b9
:1021340074490000744900007449000075490000a6
:102144007549000075490000754900007549000093
:10215400764900007649000076490000764900007f
:10216400774900007749000077490000774900006b
:102174007749000078490000784900007849000058
:102184007849000078490000794900007949000045
:102194007949000079490000794900007a49000032
:1021a4007a4900007a4900007a4900007b4900001e
:1021b4007b4900007b4900007b4900007b4900000b
:1021c4007c4900007c4900007c4900007c490000f7
:1021d4007c4900007d4900007d4900007d490000e4
:1021e4007d4900007d4900007e4900007e490000d1
:1021f4007e4900007e4900007f4900007f490000bd
:102204007f4900007f4900007f49000080490000a9
:102214008049000080490000804900008049000096
:102224008149000081490000814900008149000082
:10223400814900008249000082490000824900006f
:10224400824900008349000083490000834900005b
:102254008349000083490000844900008449000048
:102264008449000084490000844900008549000035
:102274008549000085490000854900008549000022
:10228400864900008649000086490000864900000e
:1022940087490000874900008749000087490000fa
:1022a40087490000884900008849000088490000e7
:1022b40088490000884900008949000089490000d4
:1022c4008949000089490000894900008a490000c1
:1022d4008a4900008a4900008a4900008b490000ad
:1022e4008b4900008b4900008b4900008b4900009a
:1022f4008c4900008c4900008c4900008c49000086
:102304008c4900008d4900008d4900008d49000072
:102314008d4900008d4900008e4900008e4900005f
:102324008e4900008e4900008f4900008f4900004b
:102334008f4900008f4900008f4900009049000038
:102344009049000090490000904900009049000025
:102354009149000091490000914900009149000011
:1023640091490000924900009249000092490000fe
:1023740092490000934900009349000093490000ea
:1023840093490000934900009449000094490000d7
:1023940094490000944900009449000095490000c4
:1023a40095490000954900009549000095490000b1
:1023b400964900009649000096490000964900009d
:1023c400964900009749000097490000974900008a
:1023d4009749000098490000984900009849000076
:1023e4009849000098490000994900009949000063
:1023f4009949000099490000994900009a49000050
:102404009a4900009a4900009a4900009a4900003c
:102414009b4900009b4900009b4900009b49000028
:102424009c4900009c4900009c4900009c49000014
:102434009c4900009d4900009d4900009d49000001
:102444009d4900009d4900009e4900009e490000ee
:102454009e4900009e4900009e4900009f490000db
:102464009f4900009f4900009f490000a0490000c7
:10247400a0490000a0490000a0490000a0490000b4
:10248400a1490000a1490000a1490000a1490000a0
:10249400a1490000a2490000a2490000a24900008d
:1024a400a2490000a2490000a3490000a34900007a
:1024b400a3490000a3490000a4490000a449000066
:1024c400a4490000a4490000a4490000a549000053
:1024d400a5490000a5490000a5490000a549000040
:1024e400a6490000a6490000a6490000a64900002c
:1024f400a6490000a7490000a7490000a749000019
:10250400a7490000a7490000a8490000a849000005
:10251400a8490000a8490000a9490000a9490000f1
:10252400a9490000a9490000a9490000aa490000de
:10253400aa490000aa490000aa490000aa490000cb
:10254400ab490000ab490000ab490000ab490000b7
:10255400ab490000ac490000ac490000ac490000a4
:10256400ac490000ad490000ad490000ad49000090
:10257400ad490000ad490000ae490000ae4900007d
:10258400ae490000ae490000ae490000af4900006a
:10259400af490000af490000af490000af49000057
:1025a400b0490000b0490000b0490000b049000043
:1025b400b1490000b1490000b1490000b14900002f
:1025c400b1490000b2490000b2490000b24900001c
:1025d400b2490000b2490000b3490000b349000009
:1025e400b3490000b3490000b3490000b4490000f6
:1025f400b4490000b4490000b4490000b4490000e3
:10260400b5490000b5490000b5490000b5490000ce
:10261400b6490000b6490000b6490000b6490000ba
:10262400b6490000b7490000b7490000b7490000a7
:10263400b7490000b7490000b8490000b849000094
:10264400b8490000b8490000b8490000b949000081
:10265400b9490000b9490000b9490000ba4900006d
:10266400ba490000ba490000ba490000ba4900005a
:10267400bb490000bb490000bb490000bb49000046
:10268400bb490000bc490000bc490000bc49000033
:10269400bc490000bc490000bd490000bd49000020
:1026a400bd490000bd490000bd490000be4900000d
:1026b400be490000be490000be490000bf490000f9
:1026c400bf490000bf490000bf490000bf490000e6
:1026d400c0490000c0490000c0490000c0490000d2
:1026e400c0490000c1490000c1490000c1490000bf
:1026f400c1490000c1490000c2490000c2490000ac
:10270400c2490000c2490000c3490000c349000097
:10271400c3490000c3490000c3490000c449000084
:10272400c4490000c4490000c4490000c449000071
:10273400c5490000c5490000c5490000c54900005d
:10274400c5490000c6490000c6490000c64900004a
:10275400c6490000c6490000c7490000c749000037
:10276400c7490000c7490000c8490000c849000023
:10277400c8490000c8490000c8490000c949000010
:10278400c9490000c9490000c9490000c9490000fd
:10279400ca490000ca490000ca490000ca490000e9
:1027a400ca490000cb490000cb490000cb490000d6
:1027b400cb490000cb490000cc490000cc490000c3
:1027c400cc490000cc490000cd490000cd490000af
:1027d400cd490000cd490000cd490000ce4900009c
:1027e400ce490000ce490000ce490000ce49000089
:1027f400cf490000cf490000cf490000cf49000075
:10280400cf490000d0490000d0490000d049000061
:10281400d0490000d1490000d1490000d14900004d
:10282400d1490000d1490000d2490000d24900003a
:10283400d2490000d2490000d2490000d349000027
:10284400d3490000d3490000d3490000d349000014
:10285400d4490000d4490000d4490000d449000000
:10286400d4490000d5490000d5490000d5490000ed
:10287400d5490000d6490000d6490000d6490000d9
:10288400d6490000d6490000d7490000d7490000c6
:10289400d7490000d7490000d7490000d8490000b3
:1028a400d8490000d8490000d8490000d8490000a0
:1028b400d9490000d9490000d9490000d94900008c
:1028c400d9490000da490000da490000da49000079
:1028d400da490000db490000db490000db49000065
:1028e400db490000db490000dc490000dc49000052
:1028f400dc490000dc490000dc490000dd4900003f
:10290400dd490000dd490000dd490000dd4900002b
:10291400de490000de490000de490000de49000017
:10292400de490000df490000df490000df49000004
:10293400df490000e0490000e0490000e0490000f0
:10294400e0490000e0490000e1490000e1490000dd
:10295400e1490000e1490000e1490000e2490000ca
:10296400e2490000e2490000e2490000e2490000b7
:10297400e3490000e3490000e3490000e3490000a3
:10298400e3490000e4490000e4490000e449000090
:10299400e4490000e5490000e5490000e54900007c
:1029a400e5490000e5490000e6490000e649000069
:1029b400e6490000e6490000e6490000e749000056
:1029c400e7490000e7490000e7490000e749000043
:1029d400e8490000e8490000e8490000e84900002f
:1029e400e8490000e9490000e9490000e94900001c
:1029f400e9490000ea490000ea490000ea49000008
:102a0400ea490000ea490000eb490000eb490000f4
:102a1400eb490000eb490000eb490000ec490000e1
:102a2400ec490000ec490000ec490000ec490000ce
:102a3400ed490000ed490000ed490000ed490000ba
:102a4400ed490000ee490000ee490000ee490000a7
:102a5400ee490000ef490000ef490000ef49000093
:102a6400ef490000ef490000f0490000f049000080
:102a7400f0490000f0490000f0490000f14900006d
:102a8400f1490000f1490000f1490000f14900005a
:102a9400f2490000f2490000f2490000f249000046
:102aa400f2490000f3490000f3490000f349000033
:102ab400f3490000f3490000f4490000f449000020
:102ac400f4490000f4490000f5490000f54900000c
:102ad400f5490000f5490000f5490000f6490000f9
:102ae400f6490000f6490000f6490000f6490000e6
:102af400f7490000f7490000f7490000f7490000d2
:102b0400f7490000f8490000f8490000f8490000be
:102b1400f8490000f8490000f9490000f9490000ab
:102b2400f9490000f9490000fa490000fa49000097
:102b3400fa490000fa490000fa490000fb49000084
:102b4400fb490000fb490000fb490000fb49000071
:102b5400fc490000fc490000fc490000fc4900005d
:102b6400fc490000fd490000fd490000fd4900004a
:102b7400fd490000fd490000fe490000fe49000037
:102b8400fe490000fe490000ff490000ff49000023
:102b9400ff490000ff490000ff490000004a00000f
:102ba400004a0000004a0000004a0000004a0000f9
:102bb400014a0000014a0000014a0000014a0000e5
:102bc400014a0000024a0000024a0000024a0000d2
:102bd400024a0000024a0000034a0000034a0000bf
:102be400034a0000034a0000034a0000044a0000ac
:102bf400044a0000044a0000044a0000054a000098
:102c0400054a0000054a0000054a0000054a000084
:102c1400064a0000064a0000064a0000064a000070
:102c2400064a0000074a0000074a0000074a00005d
:102c3400074a0000074a0000084a0000084a00004a
:102c4400084a0000084a0000084a0000094a000037
:102c5400094a0000094a0000094a00000a4a000023
:102c64000a4a00000a4a00000a4a00000a4a000010
:102c74000b4a00000b4a00000b4a00000b4a0000fc
:102c84000b4a00000c4a00000c4a00000c4a0000e9
:102c94000c4a00000c4a00000d4a00000d4a0000d6
:102ca4000d4a00000d4a00000d4a00000e4a0000c3
:102cb4000e4a00000e4a00000e4a00000e4a0000b0
:102cc4000f4a00000f4a00000f4a00000f4a00009c
:102cd400104a0000104a0000104a0000104a000088
:102ce400104a0000114a0000114a0000114a000075
:102cf400114a0000114a0000124a0000124a000062
:102d0400124a0000124a0000124a0000134a00004e
:102d1400134a0000134a0000134a0000134a00003b
:102d2400144a0000144a0000144a0000144a000027
:102d3400144a0000154a0000154a0000154a000014
:102d4400154a0000164a0000164a0000164a000000
:102d5400164a0000164a0000174a0000174a0000ed
:102d6400174a0000174a0000174a0000184a0000da
:102d7400184a0000184a0000184a0000184a0000c7
:102d8400194a0000194a0000194a0000194a0000b3
:102d9400194a00001a4a00001a4a00001a4a0000a0
:102da4001a4a00001a4a00001b4a00001b4a00008d
:102db4001b4a00001b4a00001c4a00001c4a000079
:102dc4001c4a00001c4a00001c4a00001d4a000066
:102dd4001d4a00001d4a00001d4a00001d4a000053
:102de4001e4a00001e4a00001e4a00001e4a00003f
:102df4001e4a00001f4a00001f4a00001f4a00002c
:102e04001f4a00001f4a0000204a0000204a000018
:102e1400204a0000204a0000204a0000214a000005
:102e2400214a0000214a0000214a0000224a0000f1
:102e3400224a0000224a0000224a0000224a0000de
:102e4400234a0000234a0000234a0000234a0000ca
:102e5400234a0000244a0000244a0000244a0000b7
:102e6400244a0000244a0000254a0000254a0000a4
:102e7400254a0000254a0000254a0000264a000091
:102e8400264a0000264a0000264a0000264a00007e
:102e9400274a0000274a0000274a0000274a00006a
:102ea400274a0000284a0000284a0000284a000057
:102eb400284a0000294a0000294a0000294a000043
:102ec400294a0000294a00002a4a00002a4a000030
:102ed4002a4a00002a4a00002a4a00002b4a00001d
:102ee4002b4a00002b4a00002b4a00002b4a00000a
:102ef4002c4a00002c4a00002c4a00002c4a0000f6
:102f04002c4a00002d4a00002d4a00002d4a0000e2
:102f14002d4a00002d4a00002e4a00002e4a0000cf
:102f24002e4a00002e4a00002f4a00002f4a0000bb
:102f34002f4a00002f4a00002f4a0000304a0000a8
:102f4400304a0000304a0000304a0000304a000095
:102f5400314a0000314a0000314a0000314a000081
:102f6400314a0000324a0000324a0000324a00006e
:102f7400324a0000324a0000334a0000334a00005b
:102f8400334a0000334a0000334a0000344a000048
:102f9400344a0000344a0000344a0000344a000035
:102fa400354a0000354a0000354a0000354a000021
:102fb400364a0000364a0000364a0000364a00000d
:102fc400364a0000374a0000374a0000374a0000fa
:102fd400374a0000374a0000384a0000384a0000e7
:102fe400384a0000384a0000384a0000394a0000d4
:102ff400394a0000394a0000394a0000394a0000c1
:103004003a4a00003a4a00003a4a00003a4a0000ac
:103014003a4a00003b4a00003b4a00003b4a000099
:103024003b4a00003b4a00003c4a00003c4a000086
:103034003c4a00003c4a00003d4a00003d4a000072
:103044003d4a00003d4a00003d4a00003e4a00005f
:103054003e4a00003e4a00003e4a00003e4a00004c
:103064003f4a00003f4a00003f4a00003f4a000038
:103074003f4a0000404a0000404a0000404a000025
:10308400404a0000404a0000414a0000414a000012
:10309400414a0000414a0000414a0000424a0000ff
:1030a400424a0000424a0000424a0000424a0000ec
:1030b400434a0000434a0000434a0000434a0000d8
:1030c400444a0000444a0000444a0000444a0000c4
:1030d400444a0000454a0000454a0000454a0000b1
:1030e400454a0000454a0000464a0000464a00009e
:1030f400464a0000464a0000464a0000474a00008b
:10310400474a0000474a0000474a0000474a000077
:10311400484a0000484a0000484a0000484a000063
:10312400484a0000494a0000494a0000494a000050
:10313400494a0000494a00004a4a00004a4a00003d
:103144004a4a00004a4a00004a4a00004b4a00002a
:103154004b4a00004b4a00004b4a00004c4a000016
:103164004c4a00004c4a00004c4a00004c4a000003
:103174004d4a00004d4a00004d4a00004d4a0000ef
:103184004d4a00004e4a00004e4a00004e4a0000dc
:103194004e4a00004e4a00004f4a00004f4a0000c9
:1031a4004f4a00004f4a00004f4a0000504a0000b6
:1031b400504a0000504a0000504a0000504a0000a3
:1031c400514a0000514a0000514a0000514a00008f
:1031d400514a0000524a0000524a0000524a00007c
:1031e400524a0000524a0000534a0000534a000069
:1031f400534a0000534a0000544a0000544a000055
:10320400544a0000544a0000544a0000554a000041
:10321400554a0000554a0000554a0000554a00002e
:10322400564a0000564a0000564a0000564a00001a
:10323400564a0000574a0000574a0000574a000007
:10324400574a0000574a0000584a0000584a0000f4
:10325400584a0000584a0000584a0000594a0000e1
:10326400594a0000594a0000594a0000594a0000ce
:103274005a4a00005a4a00005a4a00005a4a0000ba
:103284005a4a00005b4a00005b4a00005b4a0000a7
:103294005b4a00005c4a00005c4a00005c4a000093
:1032a4005c4a00005c4a00005d4a00005d4a000080
:1032b4005d4a00005d4a00005d4a00005e4a00006d
:1032c4005e4a00005e4a00005e4a00005e4a00005a
:1032d4005f4a00005f4a00005f4a00005f4a000046
:1032e4005f4a0000604a0000604a0000604a000033
:1032f400604a0000604a0000614a0000614a000020
:10330400614a0000614a0000614a0000624a00000c
:10331400624a0000624a0000624a0000624a0000f9
:10332400634a0000634a0000634a0000634a0000e5
:10333400634a0000644a0000644a0000644a0000d2
:10334400644a0000654a0000654a0000654a0000be
:10335400654a0000654a0000664a0000664a0000ab
:10336400664a0000664a0000664a0000674a000098
:10337400674a0000674a0000674a0000674a000085
:10338400684a0000684a0000684a0000684a000071
:10339400684a0000694a0000694a0000694a00005e
:1033a400694a0000694a00006a4a00006a4a00004b
:1033b4006a4a00006a4a00006a4a00006b4a000038
:1033c4006b4a00006b4a00006b4a00006b4a000025
:1033d4006c4a00006c4a00006c4a00006c4a000011
:1033e4006c4a00006d4a00006d4a00006d4a0000fe
:1033f4006d4a00006e4a00006e4a00006e4a0000ea
:103404006e4a00006e4a00006f4a00006f4a0000d6
:103414006f4a00006f4a00006f4a0000704a0000c3
:10342400704a0000704a0000704a0000704a0000b0
:10343400714a0000714a0000714a0000714a00009c
:10344400714a0000724a0000724a0000724a000089
:10345400724a0000724a0000734a0000734a000076
:10346400734a0000734a0000734a0000744a000063
:10347400744a0000744a0000744a0000744a000050
:10348400754a0000754a0000754a0000754a00003c
:10349400754a0000764a0000764a0000764a000029
:1034a400764a0000764a0000774a0000774a000016
:1034b400774a0000774a0000784a0000784a000002
:1034c400784a0000784a0000784a0000794a0000ef
:1034d400794a0000794a0000794a0000794a0000dc
:1034e4007a4a00007a4a00007a4a00007a4a0000c8
:1034f4007a4a00007b4a00007b4a00007b4a0000b5
:103504007b4a00007b4a00007c4a00007c4a0000a1
:103514007c4a00007c4a00007c4a00007d4a00008e
:103524007d4a00007d4a00007d4a00007d4a00007b
:103534007e4a00007e4a00007e4a00007e4a000067
:103544007e4a00007f4a00007f4a00007f4a000054
:103554007f4a00007f4a0000804a0000804a000041
:10356400804a0000804a0000804a0000814a00002e
:10357400814a0000814a0000814a0000814a00001b
:10358400824a0000824a0000824a0000824a000007
:10359400834a0000834a0000834a0000834a0000f3
:1035a400834a0000844a0000844a0000844a0000e0
:1035b400844a0000844a0000854a0000854a0000cd
:1035c400854a0000854a0000854a0000864a0000ba
:1035d400864a0000864a0000864a0000864a0000a7
:1035e400874a0000874a0000874a0000874a000093
:1035f400874a0000884a0000884a0000884a000080
:10360400884a0000884a0000894a0000894a00006c
:10361400894a0000894a0000894a00008a4a000059
:103624008a4a00008a4a00008a4a00008a4a000046
:103634008b4a00008b4a00008b4a00008b4a000032
:103644008b4a00008c4a00008c4a00008c4a00001f
:103654008c4a00008c4a00008d4a00008d4a00000c
:103664008d4a00008d4a00008d4a00008e4a0000f9
:103674008e4a00008e4a00008e4a00008e4a0000e6
:103684008f4a00008f4a00008f4a00008f4a0000d2
:10369400904a0000904a0000904a0000904a0000be
:1036a400904a0000914a0000914a0000914a0000ab
:1036b400914a0000914a0000924a0000924a000098
:1036c400924a0000924a0000924a0000934a000085
:1036d400934a0000934a0000934a0000934a000072
:1036e400944a0000944a0000944a0000944a00005e
:1036f400944a0000954a0000954a0000954a00004b
:10370400954a0000954a0000964a0000964a000037
:10371400964a0000964a0000964a0000974a000024
:10372400974a0000974a0000974a0000974a000011
:10373400984a0000984a0000984a0000984a0000fd
:10374400984a0000994a0000994a0000994a0000ea
:10375400994a0000994a00009a4a00009a4a0000d7
:103764009a4a00009a4a00009a4a00009b4a0000c4
:103774009b4a00009b4a00009b4a00009b4a0000b1
:103784009c4a00009c4a00009c4a00009c4a00009d
:103794009c4a00009d4a00009d4a00009d4a00008a
:1037a4009d4a00009e4a00009e4a00009e4a000076
:1037b4009e4a00009e4a00009f4a00009f4a000063
:1037c4009f4a00009f4a00009f4a0000a04a000050
:1037d400a04a0000a04a0000a04a0000a04a00003d
:1037e400a14a0000a14a0000a14a0000a14a000029
:1037f400a14a0000a24a0000a24a0000a24a000016
:10380400a24a0000a24a0000a34a0000a34a000002
:10381400a34a0000a34a0000a34a0000a44a0000ef
:10382400a44a0000a44a0000a44a0000a44a0000dc
:10383400a54a0000a54a0000a54a0000a54a0000c8
:10384400a54a0000a64a0000a64a0000a64a0000b5
:10385400a64a0000a64a0000a74a0000a74a0000a2
:10386400a74a0000a74a0000a74a0000a84a00008f
:10387400a84a0000a84a0000a84a0000a84a00007c
:10388400a94a0000a94a0000a94a0000a94a000068
:10389400a94a0000aa4a0000aa4a0000aa4a000055
:1038a400aa4a0000aa4a0000ab4a0000ab4a000042
:1038b400ab4a0000ab4a0000ab4a0000ac4a00002f
:1038c400ac4a0000ac4a0000ac4a0000ac4a00001c
:1038d400ad4a0000ad4a0000ad4a0000ad4a000008
:1038e400ad4a0000ae4a0000ae4a0000ae4a0000f5
:1038f400ae4a0000ae4a0000af4a0000af4a0000e2
:10390400af4a0000af4a0000b04a0000b04a0000cd
:10391400b04a0000b04a0000b04a0000b14a0000ba
:10392400b14a0000b14a0000b14a0000b14a0000a7
:10393400b24a0000b24a0000b24a0000b24a000093
:10394400b24a0000b34a0000b34a0000b34a000080
:10395400b34a0000b34a0000b44a0000b44a00006d
:10396400b44a0000b44a0000b44a0000b54a00005a
:10397400b54a0000b54a0000b54a0000b54a000047
:10398400b64a0000b64a0000b64a0000b64a000033
:10399400b64a0000b74a0000b74a0000b74a000020
:1039a400b74a0000b74a0000b84a0000b84a00000d
:1039b400b84a0000b84a0000b84a0000b94a0000fa
:1039c400b94a0000b94a0000b94a0000b94a0000e7
:1039d400ba4a0000ba4a0000ba4a0000ba4a0000d3
:1039e400ba4a0000bb4a0000bb4a0000bb4a0000c0
:1039f400bb4a0000bb4a0000bc4a0000bc4a0000ad
:103a0400bc4a0000bc4a0000bc4a0000bd4a000099
:103a1400bd4a0000bd4a0000bd4a0000bd4a000086
:103a2400be4a0000be4a0000be4a0000be4a000072
:103a3400be4a0000bf4a0000bf4a0000bf4a00005f
:103a4400bf4a0000bf4a0000c04a0000c04a00004c
:103a5400c04a0000c04a0000c04a0000c14a000039
:103a6400c14a0000c14a0000c14a0000c14a000026
:103a7400c24a0000c24a0000c24a0000c24a000012
:103a8400c24a0000c34a0000c34a0000c34a0000ff
:103a9400c34a0000c34a0000c44a0000c44a0000ec
:103aa400c44a0000c44a0000c44a0000c54a0000d9
:103ab400c54a0000c54a0000c54a0000c54a0000c6
:103ac400c64a0000c64a0000c64a0000c64a0000b2
:103ad400c64a0000c74a0000c74a0000c74a00009f
:103ae400c74a0000c74a0000c84a0000c84a00008c
:103af400c84a0000c84a0000c84a0000c94a000079
:103b0400c94a0000c94a0000c94a0000c94a000065
:103b1400ca4a0000ca4a0000ca4a0000ca4a000051
:103b2400ca4a0000cb4a0000cb4a0000cb4a00003e
:103b3400cb4a0000cb4a0000cc4a0000cc4a00002b
:103b4400cc4a0000cc4a0000cc4a0000cd4a000018
:103b5400cd4a0000cd4a0000cd4a0000cd4a000005
:103b6400ce4a0000ce4a0000ce4a0000ce4a0000f1
:103b7400ce4a0000cf4a0000cf4a0000cf4a0000de
:103b8400cf4a0000d04a0000d04a0000d04a0000ca
:103b9400d04a0000d04a0000d14a0000d14a0000b7
:103ba400d14a0000d14a0000d14a0000d24a0000a4
:103bb400d24a0000d24a0000d24a0000d24a000091
:103bc400d34a0000d34a0000d34a0000d34a00007d
:103bd400d34a0000d44a0000d44a0000d44a00006a
:103be400d44a0000d44a0000d54a0000d54a000057
:103bf400d54a0000d54a0000d54a0000d64a000044
:103c0400d64a0000d64a0000d64a0000d64a000030
:103c1400d74a0000d74a0000d74a0000d74a00001c
:103c2400d74a0000d84a0000d84a0000d84a000009
:103c3400d84a0000d84a0000d94a0000d94a0000f6
:103c4400d94a0000d94a0000d94a0000da4a0000e3
:103c5400da4a0000da4a0000da4a0000da4a0000d0
:103c6400db4a0000db4a0000db4a0000db4a0000bc
:103c7400db4a0000dc4a0000dc4a0000dc4a0000a9
:103c8400dc4a0000dc4a0000dd4a0000dd4a000096
:103c9400dd4a0000dd4a0000dd4a0000de4a000083
:103ca400de4a0000de4a0000de4a0000de4a000070
:103cb400df4a0000df4a0000df4a0000df4a00005c
:103cc400df4a0000e04a0000e04a0000e04a000049
:103cd400e04a0000e04a0000e14a0000e14a000036
:103ce400e14a0000e14a0000e14a0000e24a000023
:103cf400e24a0000e24a0000e24a0000e24a000010
:103d0400e34a0000e34a0000e34a0000e34a0000fb
:103d1400e34a0000e44a0000e44a0000e44a0000e8
:103d2400e44a0000e44a0000e54a0000e54a0000d5
:103d3400e54a0000e54a0000e54a0000e64a0000c2
:103d4400e64a0000e64a0000e64a0000e64a0000af
:103d5400e74a0000e74a0000e74a0000e74a00009b
:103d6400e74a0000e84a0000e84a0000e84a000088
:103d7400e84a0000e84a0000e94a0000e94a000075
:103d8400e94a0000e94a0000e94a0000ea4a000062
:103d9400ea4a0000ea4a0000ea4a0000ea4a00004f
:103da400eb4a0000eb4a0000eb4a0000eb4a00003b
:103db400eb4a0000ec4a0000ec4a0000ec4a000028
:103dc400ec4a0000ec4a0000ed4a0000ed4a000015
:103dd400ed4a0000ed4a0000ed4a0000ee4a000002
:103de400ee4a0000ee4a0000ee4a0000ee4a0000ef
:103df400ef4a0000ef4a0000ef4a0000ef4a0000db
:103e0400ef4a0000f04a0000f04a0000f04a0000c7
:103e1400f04a0000f04a0000f04a0000f14a0000b5
:103e2400f14a0000f14a0000f14a0000f14a0000a2
:103e3400f24a0000f24a0000f24a0000f24a00008e
:103e4400f24a0000f34a0000f34a0000f34a00007b
:103e5400f34a0000f34a0000f44a0000f44a000068
:103e6400f44a0000f44a0000f44a0000f54a000055
:103e7400f54a0000f54a0000f54a0000f54a000042
:103e8400f64a0000f64a0000f64a0000f64a00002e
:103e9400f64a0000f74a0000f74a0000f74a00001b
:103ea400f74a0000f74a0000f84a0000f84a000008
:103eb400f84a0000f84a0000f84a0000f94a0000f5
:103ec400f94a0000f94a0000f94a0000f94a0000e2
:103ed400fa4a0000fa4a0000fa4a0000fa4a0000ce
:103ee400fa4a0000fb4a0000fb4a0000fb4a0000bb
:103ef400fb4a0000fb4a0000fc4a0000fc4a0000a8
:103f0400fc4a0000fc4a0000fc4a0000fd4a000094
:103f1400fd4a0000fd4a0000fd4a0000fd4a000081
:103f2400fe4a0000fe4a0000fe4a0000fe4a00006d
:103f3400fe4a0000ff4a0000ff4a0000ff4a00005a
:103f4400ff4a0000ff4a0000004b0000004b000045
:103f5400004b0000004b0000004b0000014b000030
:103f6400014b0000014b0000014b0000014b00001d
:103f7400024b0000024b0000024b0000024b000009
:103f8400024b0000034b0000034b0000034b0000f6
:103f9400034b0000034b0000044b0000044b0000e3
:103fa400044b0000044b0000044b0000054b0000d0
:103fb400054b0000054b0000054b0000054b0000bd
:103fc400064b0000064b0000064b0000064b0000a9
:103fd400064b0000074b0000074b0000074b000096
:103fe400074b0000074b0000084b0000084b000083
:103ff400084b0000084b0000084b0000094b000070
:10400400094b0000094b0000094b0000094b00005c
:104014000a4b00000a4b00000a4b00000a4b000048
:104024000a4b00000b4b00000b4b00000b4b000035
:104034000b4b00000b4b00000c4b00000c4b000022
:104044000c4b00000c4b00000c4b00000d4b00000f
:104054000d4b00000d4b00000d4b00000d4b0000fc
:104064000e4b00000e4b00000e4b00000e4b0000e8
:104074000e4b00000e4b00000f4b00000f4b0000d6
:104084000f4b00000f4b00000f4b0000104b0000c3
:10409400104b0000104b0000104b0000104b0000b0
:1040a400114b0000114b0000114b0000114b00009c
:1040b400114b0000124b0000124b0000124b000089
:1040c400124b0000124b0000134b0000134b000076
:1040d400134b0000134b0000134b0000144b000063
:1040e400144b0000144b0000144b0000144b000050
:1040f400154b0000154b0000154b0000154b00003c
:10410400154b0000164b0000164b0000164b000028
:10411400164b0000164b0000174b0000174b000015
:10412400174b0000174b0000174b0000184b000002
:10413400184b0000184b0000184b0000184b0000ef
:10414400194b0000194b0000194b0000194b0000db
:10415400194b00001a4b00001a4b00001a4b0000c8
:104164001a4b00001a4b00001b4b00001b4b0000b5
:104174001b4b00001b4b00001b4b00001c4b0000a2
:104184001c4b00001c4b00001c4b00001c4b00008f
:104194001d4b00001d4b00001d4b00001d4b00007b
:1041a4001d4b00001e4b00001e4b00001e4b000068
:1041b4001e4b00001e4b00001f4b00001f4b000055
:1041c4001f4b00001f4b00001f4b00001f4b000043
:1041d400204b0000204b0000204b0000204b00002f
:1041e400204b0000214b0000214b0000214b00001c
:1041f400214b0000214b0000224b0000224b000009
:10420400224b0000224b0000224b0000234b0000f5
:10421400234b0000234b0000234b0000234b0000e2
:10422400244b0000244b0000244b0000244b0000ce
:10423400244b0000254b0000254b0000254b0000bb
:10424400254b0000254b0000264b0000264b0000a8
:10425400264b0000264b0000264b0000274b000095
:10426400274b0000274b0000274b0000274b000082
:10427400284b0000284b0000284b0000284b00006e
:10428400284b0000294b0000294b0000294b00005b
:10429400294b0000294b00002a4b00002a4b000048
:1042a4002a4b00002a4b00002a4b00002b4b000035
:1042b4002b4b00002b4b00002b4b00002b4b000022
:1042c4002c4b00002c4b00002c4b00002c4b00000e
:1042d4002c4b00002c4b00002d4b00002d4b0000fc
:1042e4002d4b00002d4b00002d4b00002e4b0000e9
:1042f4002e4b00002e4b00002e4b00002e4b0000d6
:104304002f4b00002f4b00002f4b00002f4b0000c1
:104314002f4b0000304b0000304b0000304b0000ae
:10432400304b0000304b0000314b0000314b00009b
:10433400314b0000314b0000314b0000324b000088
:10434400324b0000324b0000324b0000324b000075
:10435400334b0000334b0000334b0000334b000061
:10436400334b0000344b0000344b0000344b00004e
:10437400344b0000344b0000354b0000354b00003b
:10438400354b0000354b0000354b0000364b000028
:10439400364b0000364b0000364b0000364b000015
:1043a400374b0000374b0000374b0000374b000001
:1043b400374b0000374b0000384b0000384b0000ef
:1043c400384b0000384b0000384b0000394b0000dc
:1043d400394b0000394b0000394b0000394b0000c9
:1043e4003a4b00003a4b00003a4b00003a4b0000b5
:1043f4003a4b00003b4b00003b4b00003b4b0000a2
:104404003b4b00003b4b00003c4b00003c4b00008e
:104414003c4b00003c4b00003c4b00003d4b00007b
:104424003d4b00003d4b00003d4b00003d4b000068
:104434003e4b00003e4b00003e4b00003e4b000054
:104444003e4b00003f4b00003f4b00003f4b000041
:104454003f4b00003f4b0000404b0000404b00002e
:10446400404b0000404b0000404b0000414b00001b
:10447400414b0000414b0000414b0000414b000008
:10448400414b0000424b0000424b0000424b0000f5
:10449400424b0000424b0000434b0000434b0000e2
:1044a400434b0000434b0000434b0000444b0000cf
:1044b400444b0000444b0000444b0000444b0000bc
:1044c400454b0000454b0000454b0000454b0000a8
:1044d400454b0000464b0000464b0000464b000095
:1044e400464b0000464b0000474b0000474b000082
:1044f400474b0000474b0000474b0000484b00006f
:10450400484b0000484b0000484b0000484b00005b
:10451400494b0000494b0000494b0000494b000047
:10452400494b00004a4b00004a4b00004a4b000034
:104534004a4b00004a4b00004a4b00004b4b000022
:104544004b4b00004b4b00004b4b00004b4b00000f
:104554004c4b00004c4b00004c4b00004c4b0000fb
:104564004c4b00004d4b00004d4b00004d4b0000e8
:104574004d4b00004d4b00004e4b00004e4b0000d5
:104584004e4b00004e4b00004e4b00004f4b0000c2
:104594004f4b00004f4b00004f4b00004f4b0000af
:1045a400504b0000504b0000504b0000504b00009b
:1045b400504b0000514b0000514b0000514b000088
:1045c400514b0000514b0000524b0000524b000075
:1045d400524b0000524b0000524b0000524b000063
:1045e400534b0000534b0000534b0000534b00004f
:1045f400534b0000544b0000544b0000544b00003c
:10460400544b0000544b0000554b0000554b000028
:10461400554b0000554b0000554b0000564b000015
:10462400564b0000564b0000564b0000564b000002
:10463400574b0000574b0000574b0000574b0000ee
:10464400574b0000584b0000584b0000584b0000db
:10465400584b0000584b0000594b0000594b0000c8
:10466400594b0000594b0000594b0000594b0000b6
:104674005a4b00005a4b00005a4b00005a4b0000a2
:104684005a4b00005b4b00005b4b00005b4b00008f
:104694005b4b00005b4b00005c4b00005c4b00007c
:1046a4005c4b00005c4b00005c4b00005d4b000069
:1046b4005d4b00005d4b00005d4b00005d4b000056
:1046c4005e4b00005e4b00005e4b00005e4b000042
:1046d4005e4b00005f4b00005f4b00005f4b00002f
:1046e4005f4b00005f4b0000604b0000604b00001c
:1046f400604b0000604b0000604b0000604b00000a
:10470400614b0000614b0000614b0000614b0000f5
:10471400614b0000624b0000624b0000624b0000e2
:10472400624b0000624b0000634b0000634b0000cf
:10473400634b0000634b0000634b0000644b0000bc
:10474400644b0000644b0000644b0000644b0000a9
:10475400654b0000654b0000654b0000654b000095
:10476400654b0000664b0000664b0000664b000082
:10477400664b0000664b0000674b0000674b00006f
:10478400674b0000674b0000674b0000674b00005d
:10479400684b0000684b0000684b0000684b000049
:1047a400684b0000694b0000694b0000694b000036
:1047b400694b0000694b00006a4b00006a4b000023
:1047c4006a4b00006a4b00006a4b00006b4b000010
:1047d4006b4b00006b4b00006b4b00006b4b0000fd
:1047e4006c4b00006c4b00006c4b00006c4b0000e9
:1047f4006c4b00006d4b00006d4b00006d4b0000d6
:104804006d4b00006d4b00006d4b00006e4b0000c3
:104814006e4b00006e4b00006e4b00006e4b0000b0
:104824006f4b00006f4b00006f4b00006f4b00009c
:104834006f4b0000704b0000704b0000704b000089
:10484400704b0000704b0000714b0000714b000076
:10485400714b0000714b0000714b0000724b000063
:10486400724b0000724b0000724b0000724b000050
:10487400734b0000734b0000734b0000734b00003c
:10488400734b0000734b0000744b0000744b00002a
:10489400744b0000744b0000744b0000754b000017
:1048a400754b0000754b0000754b0000754b000004
:1048b400764b0000764b0000764b0000764b0000f0
:1048c400764b0000774b0000774b0000774b0000dd
:1048d400774b0000774b0000784b0000784b0000ca
:1048e400784b0000784b0000784b0000794b0000b7
:1048f400794b0000794b0000794b0000794b0000a4
:10490400794b00007a4b00007a4b00007a4b000090
:104914007a4b00007a4b00007b4b00007b4b00007d
:104924007b4b00007b4b00007b4b00007c4b00006a
:104934007c4b00007c4b00007c4b00007c4b000057
:104944007d4b00007d4b00007d4b00007d4b000043
:104954007d4b00007e4b00007e4b00007e4b000030
:104964007e4b00007e4b00007e4b00007f4b00001e
:104974007f4b00007f4b00007f4b00007f4b00000b
:10498400804b0000804b0000804b0000804b0000f7
:10499400804b0000814b0000814b0000814b0000e4
:1049a400814b0000814b0000824b0000824b0000d1
:1049b400824b0000824b0000824b0000834b0000be
:1049c400834b0000834b0000834b0000834b0000ab
:1049d400834b0000844b0000844b0000844b000098
:1049e400844b0000844b0000854b0000854b000085
:1049f400854b0000854b0000854b0000864b000072
:104a0400864b0000864b0000864b0000864b00005e
:104a1400874b0000874b0000874b0000874b00004a
:104a2400874b0000884b0000884b0000884b000037
:104a3400884b0000884b0000884b0000894b000025
:104a4400894b0000894b0000894b0000894b000012
:104a54008a4b00008a4b00008a4b00008a4b0000fe
:104a64008a4b00008b4b00008b4b00008b4b0000eb
:104a74008b4b00008b4b00008c4b00008c4b0000d8
:104a84008c4b00008c4b00008c4b00008d4b0000c5
:104a94008d4b00008d4b00008d4b00008d4b0000b2
:104aa4008d4b00008e4b00008e4b00008e4b00009f
:104ab4008e4b00008e4b00008f4b00008f4b00008c
:104ac4008f4b00008f4b00008f4b0000904b000079
:104ad400904b0000904b0000904b0000904b000066
:104ae400914b0000914b0000914b0000914b000052
:104af400914b0000924b0000924b0000924b00003f
:104b0400924b0000924b0000924b0000934b00002c
:104b1400934b0000934b0000934b0000934b000019
:104b2400944b0000944b0000944b0000944b000005
:104b3400944b0000954b0000954b0000954b0000f2
:104b4400954b0000954b0000964b0000964b0000df
:104b5400964b0000964b0000964b0000974b0000cc
:104b6400974b0000974b0000974b0000974b0000b9
:104b7400974b0000984b0000984b0000984b0000a6
:104b8400984b0000984b0000994b0000994b000093
:104b9400994b0000994b0000994b00009a4b000080
:104ba4009a4b00009a4b00009a4b00009a4b00006d
:104bb4009b4b00009b4b00009b4b00009b4b000059
:104bc4009b4b00009b4b00009c4b00009c4b000047
:104bd4009c4b00009c4b00009c4b00009d4b000034
:104be4009d4b00009d4b00009d4b00009d4b000021
:104bf4009e4b00009e4b00009e4b00009e4b00000d
:104c04009e4b00009f4b00009f4b00009f4b0000f9
:104c14009f4b00009f4b00009f4b0000a04b0000e7
:104c2400a04b0000a04b0000a04b0000a04b0000d4
:104c3400a14b0000a14b0000a14b0000a14b0000c0
:104c4400a14b0000a24b0000a24b0000a24b0000ad
:104c5400a24b0000a24b0000a34b0000a34b00009a
:104c6400a34b0000a34b0000a34b0000a44b000087
:104c7400a44b0000a44b0000a44b0000a44b000074
:104c8400a44b0000a54b0000a54b0000a54b000061
:104c9400a54b0000a54b0000a64b0000a64b00004e
:104ca400a64b0000a64b0000a64b0000a74b00003b
:104cb400a74b0000a74b0000a74b0000a74b000028
:104cc400a84b0000a84b0000a84b0000a84b000014
:104cd400a84b0000a84b0000a94b0000a94b000002
:104ce400a94b0000a94b0000a94b0000aa4b0000ef
:104cf400aa4b0000aa4b0000aa4b0000aa4b0000dc
:104d0400ab4b0000ab4b0000ab4b0000ab4b0000c7
:104d1400ab4b0000ac4b0000ac4b0000ac4b0000b4
:104d2400ac4b0000ac4b0000ac4b0000ad4b0000a2
:104d3400ad4b0000ad4b0000ad4b0000ad4b00008f
:104d4400ae4b0000ae4b0000ae4b0000ae4b00007b
:104d5400ae4b0000af4b0000af4b0000af4b000068
:104d6400af4b0000af4b0000b04b0000b04b000055
:104d7400b04b0000b04b0000b04b0000b04b000043
:104d8400b14b0000b14b0000b14b0000b14b00002f
:104d9400b14b0000b24b0000b24b0000b24b00001c
:104da400b24b0000b24b0000b34b0000b34b000009
:104db400b34b0000b34b0000b34b0000b34b0000f7
:104dc400b44b0000b44b0000b44b0000b44b0000e3
:104dd400b44b0000b54b0000b54b0000b54b0000d0
:104de400b54b0000b54b0000b64b0000b64b0000bd
:104df400b64b0000b64b0000b64b0000b74b0000aa
:104e0400b74b0000b74b0000b74b0000b74b000096
:104e1400b74b0000b84b0000b84b0000b84b000083
:104e2400b84b0000b84b0000b94b0000b94b000070
:104e3400b94b0000b94b0000b94b0000ba4b00005d
:104e4400ba4b0000ba4b0000ba4b0000ba4b00004a
:104e5400bb4b0000bb4b0000bb4b0000bb4b000036
:104e6400bb4b0000bb4b0000bc4b0000bc4b000024
:104e7400bc4b0000bc4b0000bc4b0000bd4b000011
:104e8400bd4b0000bd4b0000bd4b0000bd4b0000fe
:104e9400be4b0000be4b0000be4b0000be4b0000ea
:104ea400be4b0000be4b0000bf4b0000bf4b0000d8
:104eb400bf4b0000bf4b0000bf4b0000c04b0000c5
:104ec400c04b0000c04b0000c04b0000c04b0000b2
:104ed400c14b0000c14b0000c14b0000c14b00009e
:104ee400c14b0000c24b0000c24b0000c24b00008b
:104ef400c24b0000c24b0000c24b0000c34b000079
:104f0400c34b0000c34b0000c34b0000c34b000065
:104f1400c44b0000c44b0000c44b0000c44b000051
:104f2400c44b0000c54b0000c54b0000c54b00003e
:104f3400c54b0000c54b0000c54b0000c64b00002c
:104f4400c64b0000c64b0000c64b0000c64b000019
:104f5400c74b0000c74b0000c74b0000c74b000005
:104f6400c74b0000c84b0000c84b0000c84b0000f2
:104f7400c84b0000c84b0000c94b0000c94b0000df
:104f8400c94b0000c94b0000c94b0000c94b0000cd
:104f9400ca4b0000ca4b0000ca4b0000ca4b0000b9
:104fa400ca4b0000cb4b0000cb4b0000cb4b0000a6
:104fb400cb4b0000cb4b0000cc4b0000cc4b000093
:104fc400cc4b0000cc4b0000cc4b0000cc4b000081
:104fd400cd4b0000cd4b0000cd4b0000cd4b00006d
:104fe400cd4b0000ce4b0000ce4b0000ce4b00005a
:104ff400ce4b0000ce4b0000cf4b0000cf4b000047
:10500400cf4b0000cf4b0000cf4b0000cf4b000034
:10501400d04b0000d04b0000d04b0000d04b000020
:10502400d04b0000d14b0000d14b0000d14b00000d
:10503400d14b0000d14b0000d24b0000d24b0000fa
:10504400d24b0000d24b0000d24b0000d34b0000e7
:10505400d34b0000d34b0000d34b0000d34b0000d4
:10506400d34b0000d44b0000d44b0000d44b0000c1
:10507400d44b0000d44b0000d54b0000d54b0000ae
:10508400d54b0000d54b0000d54b0000d64b00009b
:10509400d64b0000d64b0000d64b0000d64b000088
:1050a400d64b0000d74b0000d74b0000d74b000075
:1050b400d74b0000d74b0000d84b0000d84b000062
:1050c400d84b0000d84b0000d84b0000d94b00004f
:1050d400d94b0000d94b0000d94b0000d94b00003c
:1050e400d94b0000da4b0000da4b0000da4b000029
:1050f400da4b0000da4b0000db4b0000db4b000016
:10510400db4b0000db4b0000db4b0000dc4b000002
:10511400dc4b0000dc4b0000dc4b0000dc4b0000ef
:10512400dc4b0000dd4b0000dd4b0000dd4b0000dc
:10513400dd4b0000dd4b0000de4b0000de4b0000c9
:10514400de4b0000de4b0000de4b0000df4b0000b6
:10515400df4b0000df4b0000df4b0000df4b0000a3
:10516400df4b0000e04b0000e04b0000e04b000090
:10517400e04b0000e04b0000e14b0000e14b00007d
:10518400e14b0000e14b0000e14b0000e24b00006a
:10519400e24b0000e24b0000e24b0000e24b000057
:1051a400e24b0000e34b0000e34b0000e34b000044
:1051b400e34b0000e34b0000e44b0000e44b000031
:1051c400e44b0000e44b0000e44b0000e54b00001e
:1051d400e54b0000e54b0000e54b0000e54b00000b
:1051e400e54b0000e64b0000e64b0000e64b0000f8
:1051f400e64b0000e64b0000e74b0000e74b0000e5
:10520400e74b0000e74b0000e74b0000e84b0000d1
:10521400e84b0000e84b0000e84b0000e84b0000be
:10522400e84b0000e94b0000e94b0000e94b0000ab
:10523400e94b0000e94b0000ea4b0000ea4b000098
:10524400ea4b0000ea4b0000ea4b0000eb4b000085
:10525400eb4b0000eb4b0000eb4b0000eb4b000072
:10526400eb4b0000ec4b0000ec4b0000ec4b00005f
:10527400ec4b0000ec4b0000ed4b0000ed4b00004c
:10528400ed4b0000ed4b0000ed4b0000ed4b00003a
:10529400ee4b0000ee4b0000ee4b0000ee4b000026
:1052a400ee4b0000ef4b0000ef4b0000ef4b000013
:1052b400ef4b0000ef4b0000f04b0000f04b000000
:1052c400f04b0000f04b0000f04b0000f04b0000ee
:1052d400f14b0000f14b0000f14b0000f14b0000da
:1052e400f14b0000f24b0000f24b0000f24b0000c7
:1052f400f24b0000f24b0000f34b0000f34b0000b4
:10530400f34b0000f34b0000f34b0000f34b0000a1
:10531400f44b0000f44b0000f44b0000f44b00008d
:10532400f44b0000f54b0000f54b0000f54b00007a
:10533400f54b0000f54b0000f64b0000f64b000067
:10534400f64b0000f64b0000f64b0000f64b000055
:10535400f74b0000f74b0000f74b0000f74b000041
:10536400f74b0000f84b0000f84b0000f84b00002e
:10537400f84b0000f84b0000f84b0000f94b00001c
:10538400f94b0000f94b0000f94b0000f94b000009
:10539400fa4b0000fa4b0000fa4b0000fa4b0000f5
:1053a400fa4b0000fb4b0000fb4b0000fb4b0000e2
:1053b400fb4b0000fb4b0000fb4b0000fc4b0000d0
:1053c400fc4b0000fc4b0000fc4b0000fc4b0000bd
:1053d400fd4b0000fd4b0000fd4b0000fd4b0000a9
:1053e400fd4b0000fe4b0000fe4b0000fe4b000096
:1053f400fe4b0000fe4b0000fe4b0000ff4b000084
:10540400ff4b0000ff4b0000ff4b0000ff4b000070
:10541400004c0000004c0000004c0000004c000058
:10542400004c0000004c0000014c0000014c000046
:10543400014c0000014c0000014c0000024c000033
:10544400024c0000024c0000024c0000024c000020
:10545400034c0000034c0000034c0000034c00000c
:10546400034c0000034c0000044c0000044c0000fa
:10547400044c0000044c0000044c0000054c0000e7
:10548400054c0000054c0000054c0000054c0000d4
:10549400054c0000064c0000064c0000064c0000c1
:1054a400064c0000064c0000074c0000074c0000ae
:1054b400074c0000074c0000074c0000084c00009b
:1054c400084c0000084c0000084c0000084c000088
:1054d400084c0000094c0000094c0000094c000075
:1054e400094c0000094c00000a4c00000a4c000062
:1054f4000a4c00000a4c00000a4c00000a4c000050
:105504000b4c00000b4c00000b4c00000b4c00003b
:105514000b4c00000c4c00000c4c00000c4c000028
:105524000c4c00000c4c00000d4c00000d4c000015
:105534000d4c00000d4c00000d4c00000d4c000003
:105544000e4c00000e4c00000e4c00000e4c0000ef
:105554000e4c00000f4c00000f4c00000f4c0000dc
:105564000f4c00000f4c00000f4c0000104c0000ca
:10557400104c0000104c0000104c0000104c0000b7
:10558400114c0000114c0000114c0000114c0000a3
:10559400114c0000114c0000124c0000124c000091
:1055a400124c0000124c0000124c0000134c00007e
:1055b400134c0000134c0000134c0000134c00006b
